:020000040800F2
:100000007806002029020008E1050008DD05000847
:10001000DF050008CF030008050700080000000006
:10002000000000000000000000000000E5050008DE
:10003000D103000800000000E3050008FD050008EA
:10004000430200084302000843020008430200087C
:10005000430200084302000843020008430200086C
:10006000430200084302000843020008430200085C
:10007000430200084302000843020008430200084C
:10008000430200084302000843020008430200083C
:10009000430200084302000843020008430200082C
:1000A000430200084302000843020008430200081C
:1000B000430200084302000843020008430200080C
:1000C00043020008430200084302000843020008FC
:1000D00043020008430200084302000843020008EC
:1000E00043020008430200084302000843020008DC
:1000F00043020008430200084302000843020008CC
:1001000043020008430200084302000843020008BB
:1001100043020008430200084302000843020008AB
:10012000430200084302000843020008430200089B
:10013000430200084302000843020008430200088B
:10014000430200084302000843020008430200087B
:10015000430200084302000843020008430200086B
:10016000430200084302000843020008430200085B
:10017000430200084302000843020008430200084B
:10018000430200084302000800F002F800F03CF8C7
:100190000AA090E8000C82448344AAF10107DA45E2
:1001A00001D100F031F8AFF2090EBAE80F0013F0F8
:1001B000010F18BFFB1A43F0010318477005000038
:1001C00090050000103A24BF78C878C1FAD85207C9
:1001D00024BF30C830C144BF04680C6070470000C1
:1001E0000023002400250026103A28BF78C1FBD840
:1001F000520728BF30C148BF0B6070471FB500F0E1
:100200008FFA1FBD10B510BD00F0A8F81146FFF71A
:10021000F5FF00F078FA00F0C6F803B4FFF7F2FF3C
:1002200003BC00F0CDF800000948804709480047AA
:10023000FEE7FEE7FEE7FEE7FEE7FEE7FEE7FEE796
:10024000FEE7FEE704480549054A064B70470000F3
:1002500001060008890100087800002078060020C7
:10026000780200207802002053EA020C00F0698036
:100270002DE9F04B4FF00006002B1FBFB3FA83F5BA
:1002800003FA05F424FA05F65E4012BF1643B2FAEB
:1002900082F502FA05F4C5F120051EBF22FA05FC1D
:1002A00044EA0C04203556EA044C4FEA144418BFC3
:1002B000641C4FF000084FF00009904271EB030CF2
:1002C00039D3002919BFB1FA81F701FA07F6B0FA5C
:1002D00080F700FA07F6C7F120071EBF20FA07FCD7
:1002E00046EA0C062037B6FBF4FCA7EB0507103FE7
:1002F00007F01F0BCBF120060CFA0BFB2CFA06F6CD
:1003000044BFB3460026202FA4BF5E464FF0000B2B
:100310005BEA060C08BF4FF0010B19EB0B09ABFBB6
:10032000027C48EB0608C01B06FB02CC0BFB03CC8F
:1003300071EB0C01C1E70B46024641464846BDE859
:10034000F08B13B54FF000004FF00001AFF30080C9
:10035000BDE81C407047704770477047754600F015
:100360002BF8AE4605006946534620F00700854647
:1003700018B020B5FFF766FFBDE820404FF000063B
:100380004FF000074FF000084FF0000B21F007017D
:10039000AC46ACE8C009ACE8C009ACE8C009ACE8C0
:1003A000C0098D46704710B50446AFF30080204663
:1003B000BDE81040FFF731BF00487047180000202B
:1003C00001491820ABBEFEE7260002007047FEE799
:1003D000704700002DE9F05F044651488B464FF00E
:1003E000E027017841B901210170881F00F0FBF876
:1003F000386920F00100386154EA0B0008BFBDE8FD
:10040000F09F0021DFF81CA1D4F5FA704FF4FA59DF
:10041000884671EB0B0055D20026D4F1010001256E
:1004200066EB0B014FF4FA723346FFF71DFF002312
:10043000D0F1010263EB0103A81A76EB030038BF89
:10044000DAF800C022D200BFBCFBF9F04FF4FA7119
:1004500048437861C7F81880386940F00100386176
:10046000386910F0010F02D010F4803FF8D03869DD
:1004700020F001003861C7F81880B4F5FA746D1CDB
:1004800046F10006A81A76EB0300DDD3DAF8000087
:10049000B0FBF9F0A0FB04017861C7F81880386957
:1004A00040F001003861386910F0010F02D010F4FB
:1004B000803FF8D0386920F001003861C7F8188013
:1004C000BDE8F09F0021D4F5FA7071EB0B0038BF46
:1004D000DAF80020DAD200BFB2FBF9F04FF4FA717B
:1004E00048437861C7F81880386940F001003861E6
:1004F000386910F0010F02D010F4803FF8D038694D
:1005000020F001003861C7F81880B4F5FA744BF197
:10051000FF3B0021D4F5FA7071EB0B00DCD3B5E79B
:10052000000000200400002070B505460C46204362
:1005300008BF70BD4FF47A700021FFF74BFF6D1EAE
:1005400044F1FF3455EA0400F4D170BD70B505469E
:100550001F480E464FF0E024017841B90121017097
:10056000881F00F040F8206920F00100206155EA62
:10057000060008BF70BD4FF47A720023284631464A
:10058000FFF772FE15461E4650EA010218BFFFF73C
:1005900021FF55EA060008BF70BD0E480E49002233
:1005A0000068B0FBF1F0A0FB05016061A261206969
:1005B00040F001002061206910F0010F02D010F41A
:1005C000803FF8D0206920F001002061A26170BD59
:1005D000000000200400002000127A00FEE7FEE781
:1005E0007047704770474FF0E021042808690CBF3E
:1005F00040F0040020F004000861704770470000DC
:10060000374882B0016841F47001016035480168E3
:1006100041F001010160344900230B60026822F4BB
:10062000102222F08072026000F1040C2F4ACCF8F4
:100630000020026822F4802202600A1D13600193E8
:100640000093026842F480320260026802F40032D1
:100650000092019A521C0192009A1AB9019AB2F5BD
:10066000A04FF2D1026812F4003F08BF009331D0CE
:10067000012200921E4A136843F0805313601D4A02
:10068000136843F4404313600A680A600A6842F43E
:1006900000420A600A6842F4A0520A60164ACCF886
:1006A0000020026842F080720260026812F0007F4F
:1006B000FBD0124A40F205701060086820F0030079
:1006C0000860086840F002000860086800F00C004C
:1006D0000828FAD10A494FF00060086002B070475C
:1006E00088ED00E000380240083802401030002455
:1006F000403802400070004008544007003C02406F
:1007000008ED00E0FEE70A200021FFF71FFF0A20A6
:100710000021FFF75FFE0A200021FFF705FFF2E747
:100720004FF04070E1EE100A704700004C070008DF
:100730000000002018000000C40100086407000841
:100740001800002060060000E00100080000000022
:10075000007A030A00000000000000000102030408
:040760000607080977
:040000050800018965
:00000001FF
