:020000040800F2
:100000007006002029020008810500087D0500080F
:100010007F050008CF030008350700080000000036
:100020000000000000000000000000002D06000895
:10003000D103000800000000830500082F06000817
:10004000430200084302000843020008430200087C
:10005000430200084302000843020008430200086C
:10006000430200084302000843020008430200085C
:10007000430200084302000843020008430200084C
:10008000430200084302000843020008430200083C
:10009000430200084302000843020008430200082C
:1000A000430200084302000843020008430200081C
:1000B000430200084302000843020008430200080C
:1000C00043020008430200084302000843020008FC
:1000D00043020008430200084302000843020008EC
:1000E00043020008430200084302000843020008DC
:1000F00043020008430200084302000843020008CC
:1001000043020008430200084302000843020008BB
:1001100043020008430200084302000843020008AB
:10012000430200084302000843020008430200089B
:10013000430200084302000843020008430200088B
:10014000430200084302000843020008430200087B
:10015000430200084302000843020008430200086B
:10016000430200084302000843020008430200085B
:10017000430200084302000843020008430200084B
:10018000430200084302000800F002F800F03CF8C7
:100190000AA090E8000C82448344AAF10107DA45E2
:1001A00001D100F031F8AFF2090EBAE80F0013F0F8
:1001B000010F18BFFB1A43F001031847A005000008
:1001C000C0050000103A24BF78C878C1FAD8520799
:1001D00024BF30C830C144BF04680C6070470000C1
:1001E0000023002400250026103A28BF78C1FBD840
:1001F000520728BF30C148BF0B6070471FB500F0E1
:10020000A7FA1FBD10B510BD00F0A8F81146FFF702
:10021000F5FF00F090FA00F0C6F803B4FFF7F2FF24
:1002200003BC00F0CDF800000948804709480047AA
:10023000FEE7FEE7FEE7FEE7FEE7FEE7FEE7FEE796
:10024000FEE7FEE704480549054A064B70470000F3
:1002500031060008890100087000002070060020A7
:10026000700200207002002053EA020C00F0698046
:100270002DE9F04B4FF00006002B1FBFB3FA83F5BA
:1002800003FA05F424FA05F65E4012BF1643B2FAEB
:1002900082F502FA05F4C5F120051EBF22FA05FC1D
:1002A00044EA0C04203556EA044C4FEA144418BFC3
:1002B000641C4FF000084FF00009904271EB030CF2
:1002C00039D3002919BFB1FA81F701FA07F6B0FA5C
:1002D00080F700FA07F6C7F120071EBF20FA07FCD7
:1002E00046EA0C062037B6FBF4FCA7EB0507103FE7
:1002F00007F01F0BCBF120060CFA0BFB2CFA06F6CD
:1003000044BFB3460026202FA4BF5E464FF0000B2B
:100310005BEA060C08BF4FF0010B19EB0B09ABFBB6
:10032000027C48EB0608C01B06FB02CC0BFB03CC8F
:1003300071EB0C01C1E70B46024641464846BDE859
:10034000F08B13B54FF000004FF00001AFF30080C9
:10035000BDE81C407047704770477047754600F015
:100360002BF8AE4605006946534620F00700854647
:1003700018B020B5FFF766FFBDE820404FF000063B
:100380004FF000074FF000084FF0000B21F007017D
:10039000AC46ACE8C009ACE8C009ACE8C009ACE8C0
:1003A000C0098D46704710B50446AFF30080204663
:1003B000BDE81040FFF731BF004870471000002033
:1003C00001491820ABBEFEE7260002007047FEE799
:1003D000704700002DE9F04704460D4688B02843D9
:1003E00004BF08B0BDE8F0870020354F8046D4F543
:1003F000FA714FF47A794FF4FA5A4FF0E026A84197
:1004000032D204A800F0BEF80598B84230690AD28A
:1004100040F00400306105984FF4FA71B0FBF9F038
:100420004843706109E020F00400306105984FF402
:10043000FA71B0FBFAF048437061C6F81880306971
:1004400040F001003061306910F4803FFBD030692A
:1004500020F001003061B4F5FA7445F1FF35002059
:10046000D4F5FA71A841CCD3684600F08BF8019816
:10047000B842306909D240F0040030610198B0FB05
:10048000F9F0A0FB0401706108E020F00400306185
:100490000198B0FBFAF0A0FB04017061C6F8188067
:1004A000306940F001003061306910F4803FFBD0CA
:1004B000306920F00100306108B0BDE8F08700002D
:1004C00000127A0070B505460C46204308BF70BD87
:1004D0004FF47A700021FFF77DFF6D1E44F1FF3469
:1004E00055EA0400F4D170BD50EA010208BF70471C
:1004F00030B585B04FF47A720023FFF7B5FE14468D
:100500001D4650EA010218BFFFF764FF54EA0500D8
:1005100004BF05B030BD684600F034F81549019BB2
:1005200000224FF0E02099420BD9016941F004010B
:100530000161114B0199B1FBF3F1A1FB041341617E
:1005400009E0036923F004030361019BB3FBF1F1AC
:10055000A1FB041341618261016941F00101016164
:10056000016911F4803FFBD0016921F001010161B3
:1005700005B030BD00127A0040420F00FEE7FEE7F2
:1005800070477047254A30B41168254B11F00C01B3
:1005900006D05C10042908BF046002D008291ED0D0
:1005A000036011680F2303EA11111E4B595CD0F848
:1005B00000C02CFA01F14160D2F800C0072404EA1F
:1005C0009C2C13F80CC021FA0CFCC0F808C012686F
:1005D00004EA52329A5CD140C16030BC7047124983
:1005E000D1F800C0CCF38055D1F800C0002D0CF03C
:1005F0003F0C14BFB4FBFCF3B3FBFCF3D1F800C019
:100600000968CCF3881C03FB0CF3C1F30141491CBE
:100610004900B3FBF1F10160C3E700000838024074
:100620000024F400000000200438024070477047A6
:10063000374882B0016841F47001016035480168B3
:1006400041F001010160344900230B60026822F48B
:10065000102222F08072026000F1040C2F4ACCF8C4
:100660000020026822F4802202600A1D13600193B8
:100670000093026842F480320260026802F40032A1
:100680000092019A521C0192009A1AB9019AB2F58D
:10069000A04FF2D1026812F4003F08BF009331D09E
:1006A000012200921E4A136843F0805313601D4AD2
:1006B000136843F4404313600A680A600A6842F40E
:1006C00000420A600A6842F4A0520A60164ACCF856
:1006D0000020026842F080720260026812F0007F1F
:1006E000FBD0124A40F205701060086820F0030049
:1006F0000860086840F002000860086800F00C001C
:100700000828FAD10A494FF00060086002B070472B
:1007100088ED00E000380240083802401030002424
:10072000403802400070004008544007003C02403E
:1007300008ED00E0FEE70A200021FFF7D5FE0A20C1
:100740000021FFF747FE0A200021FFF7BBFEF2E77A
:100750004FF04070E1EE100A704700007C0700087F
:100760000000002010000000C40100088C070008F1
:100770001000002060060000E001000800000000FA
:0C0780000102030401020304060708093B
:040000050800018965
:00000001FF
